{
  "contractName": "BallotData",
  "abi": [
    {
      "constant": true,
      "inputs": [],
      "name": "optionsCount",
      "outputs": [
        {
          "name": "",
          "type": "uint32"
        }
      ],
      "payable": false,
      "stateMutability": "view",
      "type": "function"
    },
    {
      "constant": false,
      "inputs": [
        {
          "name": "_value",
          "type": "string"
        }
      ],
      "name": "addOption",
      "outputs": [
        {
          "name": "_optionId",
          "type": "uint32"
        }
      ],
      "payable": false,
      "stateMutability": "nonpayable",
      "type": "function"
    },
    {
      "constant": true,
      "inputs": [
        {
          "name": "_id",
          "type": "uint32"
        }
      ],
      "name": "getOptionAt",
      "outputs": [
        {
          "name": "",
          "type": "string"
        },
        {
          "name": "",
          "type": "uint32"
        }
      ],
      "payable": false,
      "stateMutability": "view",
      "type": "function"
    }
  ],
  "bytecode": "0x60806040526000600160006101000a81548163ffffffff021916908363ffffffff16021790555034801561003257600080fd5b506104ee806100426000396000f300608060405260043610610057576000357c0100000000000000000000000000000000000000000000000000000000900463ffffffff1680631a1dbabb1461005c5780631ef1383814610093578063edc550dc14610152575b600080fd5b34801561006857600080fd5b506100716101db565b604051808263ffffffff1663ffffffff16815260200191505060405180910390f35b34801561009f57600080fd5b506100c4600480360381019080803563ffffffff1690602001909291905050506101f1565b60405180806020018363ffffffff1663ffffffff168152602001828103825284818151815260200191508051906020019080838360005b838110156101165780820151818401526020810190506100fb565b50505050905090810190601f1680156101435780820380516001836020036101000a031916815260200191505b50935050505060405180910390f35b34801561015e57600080fd5b506101b9600480360381019080803590602001908201803590602001908080601f01602080910402602001604051908101604052809392919081815260200183838082843782019150505050505091929192905050506102ed565b604051808263ffffffff1663ffffffff16815260200191505060405180910390f35b600160009054906101000a900463ffffffff1681565b606060008060008463ffffffff1663ffffffff1681526020019081526020016000206001016000808563ffffffff1663ffffffff16815260200190815260200160002060020160009054906101000a900463ffffffff16818054600181600116156101000203166002900480601f0160208091040260200160405190810160405280929190818152602001828054600181600116156101000203166002900480156102dd5780601f106102b2576101008083540402835291602001916102dd565b820191906000526020600020905b8154815290600101906020018083116102c057829003601f168201915b5050505050915091509150915091565b6000606060405190810160405280600160009054906101000a900463ffffffff1663ffffffff168152602001838152602001600063ffffffff16815250600080600160009054906101000a900463ffffffff1663ffffffff1663ffffffff16815260200190815260200160002060008201518160000160006101000a81548163ffffffff021916908363ffffffff160217905550602082015181600101908051906020019061039d92919061041d565b5060408201518160020160006101000a81548163ffffffff021916908363ffffffff1602179055509050506001600081819054906101000a900463ffffffff168092919060010191906101000a81548163ffffffff021916908363ffffffff16021790555050600160009054906101000a900463ffffffff169050919050565b828054600181600116156101000203166002900490600052602060002090601f016020900481019282601f1061045e57805160ff191683800117855561048c565b8280016001018555821561048c579182015b8281111561048b578251825591602001919060010190610470565b5b509050610499919061049d565b5090565b6104bf91905b808211156104bb5760008160009055506001016104a3565b5090565b905600a165627a7a723058207240b3baf73edf6666f4211d079858028be794b65b2ead7e5472a96487e5cf3c0029",
  "source": "pragma solidity ^0.4.0;\n\n/**\n * Contract represents a simple data model for storing ballot data.\n * Avoting contract can use this to define its ballot model\n */\ncontract BallotData {\n    \n    \n    // data stucts\n    struct Option {\n        uint32 id;\n        string value;\n        uint32 score;\n    }\n    \n    //list of options\n    mapping(uint32 => Option) internal options ;\n    \n    //total count of options available\n    uint32 public optionsCount = 0;\n    \n    \n    function addOption(string _value) public returns (uint32 _optionId) {\n        options[optionsCount] = Option({id : optionsCount, value: _value, score : 0});\n        optionsCount++;\n        return optionsCount;\n    }\n\n    /**\n     * Returns name of an Option on given index\n     */\n    function getOptionAt(uint32 _id) public view returns (string, uint32) {\n        return (options[_id].value, options[_id].score);\n    }\n    \n    \n    \n}",
  "sourcePath": "/Users/shaksoni/Documents/geth-tut/app/contracts/BallotData.sol",
  "compiler": {
    "name": "solc",
    "version": "0.4.24+commit.e67f0147.Emscripten.clang"
  },
  "schemaVersion": "2.0.1",
  "updatedAt": "2018-06-23T11:03:14.771Z"
}