{
  "contractName": "Voting",
  "abi": [
    {
      "constant": true,
      "inputs": [],
      "name": "optionsCount",
      "outputs": [
        {
          "name": "",
          "type": "uint32"
        }
      ],
      "payable": false,
      "stateMutability": "view",
      "type": "function"
    },
    {
      "constant": true,
      "inputs": [
        {
          "name": "_id",
          "type": "uint32"
        }
      ],
      "name": "getOptionAt",
      "outputs": [
        {
          "name": "",
          "type": "string"
        },
        {
          "name": "",
          "type": "uint32"
        }
      ],
      "payable": false,
      "stateMutability": "view",
      "type": "function"
    },
    {
      "constant": false,
      "inputs": [
        {
          "name": "_value",
          "type": "string"
        }
      ],
      "name": "addOption",
      "outputs": [
        {
          "name": "_optionId",
          "type": "uint32"
        }
      ],
      "payable": false,
      "stateMutability": "nonpayable",
      "type": "function"
    },
    {
      "inputs": [],
      "payable": false,
      "stateMutability": "nonpayable",
      "type": "constructor"
    },
    {
      "constant": false,
      "inputs": [
        {
          "name": "_optId",
          "type": "uint32"
        }
      ],
      "name": "vote",
      "outputs": [],
      "payable": false,
      "stateMutability": "nonpayable",
      "type": "function"
    },
    {
      "constant": true,
      "inputs": [
        {
          "name": "_voter",
          "type": "address"
        }
      ],
      "name": "getVoteFor",
      "outputs": [
        {
          "name": "_optId",
          "type": "uint32"
        }
      ],
      "payable": false,
      "stateMutability": "view",
      "type": "function"
    }
  ],
  "bytecode": "0x60806040526000600160006101000a81548163ffffffff021916908363ffffffff16021790555034801561003257600080fd5b5033600160046101000a81548173ffffffffffffffffffffffffffffffffffffffff021916908373ffffffffffffffffffffffffffffffffffffffff160217905550610773806100836000396000f30060806040526004361061006d576000357c0100000000000000000000000000000000000000000000000000000000900463ffffffff1680631a1dbabb146100725780631ef13838146100a95780639094c76314610168578063e1a97ac21461019b578063edc550dc146101fe575b600080fd5b34801561007e57600080fd5b50610087610287565b604051808263ffffffff1663ffffffff16815260200191505060405180910390f35b3480156100b557600080fd5b506100da600480360381019080803563ffffffff16906020019092919050505061029d565b60405180806020018363ffffffff1663ffffffff168152602001828103825284818151815260200191508051906020019080838360005b8381101561012c578082015181840152602081019050610111565b50505050905090810190601f1680156101595780820380516001836020036101000a031916815260200191505b50935050505060405180910390f35b34801561017457600080fd5b50610199600480360381019080803563ffffffff169060200190929190505050610399565b005b3480156101a757600080fd5b506101dc600480360381019080803573ffffffffffffffffffffffffffffffffffffffff169060200190929190505050610454565b604051808263ffffffff1663ffffffff16815260200191505060405180910390f35b34801561020a57600080fd5b50610265600480360381019080803590602001908201803590602001908080601f0160208091040260200160405190810160405280939291908181526020018383808284378201915050505050509192919290505050610572565b604051808263ffffffff1663ffffffff16815260200191505060405180910390f35b600160009054906101000a900463ffffffff1681565b606060008060008463ffffffff1663ffffffff1681526020019081526020016000206001016000808563ffffffff1663ffffffff16815260200190815260200160002060020160009054906101000a900463ffffffff16818054600181600116156101000203166002900480601f0160208091040260200160405190810160405280929190818152602001828054600181600116156101000203166002900480156103895780601f1061035e57610100808354040283529160200191610389565b820191906000526020600020905b81548152906001019060200180831161036c57829003601f168201915b5050505050915091509150915091565b6000808263ffffffff1663ffffffff168152602001908152602001600020600201600081819054906101000a900463ffffffff168092919060010191906101000a81548163ffffffff021916908363ffffffff1602179055505080600260003373ffffffffffffffffffffffffffffffffffffffff1673ffffffffffffffffffffffffffffffffffffffff16815260200190815260200160002060006101000a81548163ffffffff021916908363ffffffff16021790555050565b6000600160049054906101000a900473ffffffffffffffffffffffffffffffffffffffff1673ffffffffffffffffffffffffffffffffffffffff163373ffffffffffffffffffffffffffffffffffffffff1614151561051b576040517f08c379a00000000000000000000000000000000000000000000000000000000081526004018080602001828103825260178152602001807f4f7065726174696f6e206e6f74207065726d697474656400000000000000000081525060200191505060405180910390fd5b600260008373ffffffffffffffffffffffffffffffffffffffff1673ffffffffffffffffffffffffffffffffffffffff16815260200190815260200160002060009054906101000a900463ffffffff169050919050565b6000606060405190810160405280600160009054906101000a900463ffffffff1663ffffffff168152602001838152602001600063ffffffff16815250600080600160009054906101000a900463ffffffff1663ffffffff1663ffffffff16815260200190815260200160002060008201518160000160006101000a81548163ffffffff021916908363ffffffff16021790555060208201518160010190805190602001906106229291906106a2565b5060408201518160020160006101000a81548163ffffffff021916908363ffffffff1602179055509050506001600081819054906101000a900463ffffffff168092919060010191906101000a81548163ffffffff021916908363ffffffff16021790555050600160009054906101000a900463ffffffff169050919050565b828054600181600116156101000203166002900490600052602060002090601f016020900481019282601f106106e357805160ff1916838001178555610711565b82800160010185558215610711579182015b828111156107105782518255916020019190600101906106f5565b5b50905061071e9190610722565b5090565b61074491905b80821115610740576000816000905550600101610728565b5090565b905600a165627a7a72305820baae07dad894bed6698029a9e22ee8d77b8896e1645a837f459527dfb165fe2c0029",
  "source": "pragma solidity ^0.4.0;\n\nimport './BallotData.sol';\n\ncontract Voting is BallotData {\n    \n    /**\n     * The owner of this contract. \n     */\n    address private owner;\n    \n    \n    /**\n     * Validation to ensure only owner of this contract can call a function\n     */\n    modifier ownerOnly {\n        if(msg.sender != owner) {\n            revert(\"Operation not permitted\");\n        }\n        _;\n    }\n\n    /**\n     * Stores the address of voter against the option selected\n     */\n    mapping (address => uint32) private votes;\n    \n    /**\n     * Store the owner of this contract\n     */\n    constructor() public {\n        owner = msg.sender;\n    }\n    \n    \n    /**\n     * Vote for an option. \n     */\n    function vote(uint32 _optId) public {\n        \n        //increment the score of the option being voted\n        options[_optId].score++;\n        // store the user id against the option voted\n        votes[msg.sender] = _optId;\n        \n    }\n    \n    /**\n     * Check which user voted for which option. Permitted to the owner of the \n     * contract only.\n     */\n    function getVoteFor(address _voter) public view ownerOnly returns (uint32 _optId) {\n        return votes[_voter];\n    }\n\n\n    \n}\n\n",
  "sourcePath": "/Users/shaksoni/Documents/geth-tut/app/contracts/Voting.sol",
  "compiler": {
    "name": "solc",
    "version": "0.4.24+commit.e67f0147.Emscripten.clang"
  },
  "schemaVersion": "2.0.1",
  "updatedAt": "2018-06-23T11:03:14.771Z"
}